:020000040800F2
:1000000030070020E1010008031B0008CD1800089C
:10001000011B00084D0200085522000800000000E6
:10002000000000000000000000000000490100087E
:1000300087020008000000008D010008051B000871
:10004000FB010008FB010008FB010008FB010008A0
:10005000FB010008FB010008FB010008FB01000890
:10006000FB010008FB010008FB010008FB01000880
:10007000FB010008FB010008FB0100085102000819
:10008000FB010008FB010008FB010008FB01000860
:10009000FB010008FB010008FB010008FB01000850
:1000A000FB0100087D1B0008FB010008FB010008A4
:1000B000FB010008FB010008FB010008FB01000830
:1000C000FB010008FB010008FB010008FB01000820
:1000D000FB01000801220008FB010008FB010008E9
:1000E000FB010008FB010008FB010008FB01000800
:1000F000FB010008FB010008FB010008FB010008F0
:10010000FB010008FB010008FB010008FB010008DF
:10011000FB010008FB010008FB010008FB010008CF
:10012000FB010008FB010008FB010008FB010008BF
:10013000DFF810D000F078F800480047A523000849
:10014000AFF3008030070020224B19680868B0E840
:10015000F00F80F30988BFF36F8F4FF0000080F33A
:1001600011884EF00D0E7047000000000648006830
:10017000006880F3088862B661B6BFF34F8FBFF3A3
:100180006F8F00DF00BF00BF08ED00E0EFF30980D4
:10019000BFF36F8F0F4B1A6820E9F00F106008B59E
:1001A0004FF0500080F31188BFF34F8FBFF36F8F74
:1001B00002F04AF94FF0000080F31188BDE80840D2
:1001C00019680868B0E8F00F80F30988BFF36F8FF3
:1001D000704700BF18000020EFF305807047000053
:1001E0000648804706480047FEE7FEE7FEE7FEE7D1
:1001F000FEE7FEE7FEE7FEE7FEE7FEE77B1B000803
:1002000031010008D2B201E000F8012B491EFBD2F7
:1002100070470022F6E710B513460A460446194611
:10022000FFF7F0FF204610BD064C074D06E0E068E2
:1002300040F0010394E8070098471034AC42F6D32D
:10024000FFF77AFFEC2500080C260008FEE7000007
:10025000014800F0D7B800003001002030B590F818
:1002600040500124AC40C56B6C6004686360436817
:10027000102B036803D099600068C26030BD9A609B
:100280000068C16030BD704772B6FEE710B590F8E7
:1002900021100022022905D00421816380F820204A
:1002A000012010BD01680B6823F00E030B6001688C
:1002B0000B6823F001030B6090F84030C46B012100
:1002C00001FA03F3636080F8211080F820201046C3
:1002D00010BD00002DE9F05F90F8211000240229E4
:1002E00003D004218163012485E001680A6822F0BB
:1002F0000E020A6001680A6822F001020A603F4E9D
:100300003E4FB215DFF8F4C0DFF8F090DFF8ECA054
:10031000DFF8E8B0DFF8E4E00168783F1301150288
:10032000ACF1640CA9F15009AAF13C0AABF1280B1D
:10033000AEF1140E4FF48018B14227D9B9420ED055
:10034000614512D049451DD0514518D0594518D0A6
:10035000714501D1424615E0294EB14201D1012239
:1003600010E0274E1436B14201D110220AE0244E8B
:100370002836B14206D0224A3C32914201D11A4677
:1003800000E02A461E49091F0A602BE0B94213D03B
:10039000614517D0494522D051451DD059451DD042
:1003A000714501D142461AE0B14202D14FF080724C
:1003B00015E0134EB14201D1012210E0104E143667
:1003C000B14201D110220AE00D4E2836B14206D0CA
:1003D0000B4A3C32914201D11A4600E02A460749B5
:1003E00080394A60012180F82110002180F8201016
:1003F000416B01B188472046BDE8F09F8000024074
:10040000080402402DE9F05FC16B0A6801680B68BF
:10041000046C4FF0040808FA04F8844D844E854FAC
:10042000DFF814C2DFF81492DFF814A2DFF814B278
:10043000DFF814E218EA020F65D05FEA437862D56C
:100440000A68920603D40A6822F004020A60DFF800
:10045000F0814FF48062016808F11408130114025E
:10046000414524D9A9420DD0B1420FD0B9421AD08A
:10047000614515D0494515D0514501D1120312E00F
:10048000594501D104220EE0714501D140220AE014
:100490006D4D1435A94206D06B4A2832914201D1E4
:1004A0001A4600E022466749091F0A6029E0A9426E
:1004B00013D0B14215D0B94220D061451BD0494577
:1004C0001BD0514502D14FF4800217E0414502D1C3
:1004D0004FF0806212E0594501D104220EE07145CF
:1004E00001D140220AE0584D1435A94206D0564A9F
:1004F0002832914201D11A4600E022464B49083980
:100500004A60C16A71E04FF0020808FA04F818EA7C
:10051000020F70D05FEA83786DD50A68920606D420
:100520000A6822F00A020A60012180F82110DFF82F
:1005300010814FF40072016808F1140813011402CD
:10054000414524D9A9420DD0B1420FD0B9421AD0A9
:10055000614515D0494515D0514501D1120312E02E
:10056000594501D102220EE0714501D120220AE055
:10057000354D1435A94206D0334A2832914201D173
:100580001A4600E022462F49091F0A6029E0A942C5
:1005900013D0B14215D0B94220D061451BD0494596
:1005A0001BD0514502D14FF4001217E0414502D152
:1005B0004FF0007212E0594501D102220EE0714560
:1005C00001D120220AE0204D1435A94206D01E4A4E
:1005D0002832914201D11A4600E0224613490839D7
:1005E0004A60002180F82010816A00291CD0BDE8F3
:1005F000F05F0847FFE70825A540154214D01A0709
:1006000012D50A6822F00E020A6090F84020C36BEF
:10061000012101FA02F25A60816380F82110002161
:1006200080F82010016BE0E7BDE8F09F0800024071
:100630001C000240300002404400024058000240CA
:100640006C000240080402401C04024030B560B156
:100650001A4B026814219A4209D2194B1344B3FB76
:10066000F1F18900016417490AE0012030BD134B04
:100670005B421344B3FBF1F1890001640F4908396F
:10068000C163022180F82110136843F6F0718B4397
:10069000F0E901142143D0E902452C4321430469C8
:1006A0002143446921438469214319431160002196
:1006B0004163012242770177084630BD08040240B9
:1006C000F8FFFDBF0000024070B5044690F820001E
:1006D000002501280CD0012084F8200094F8216026
:1006E0000020012E06D084F820000225284670BD87
:1006F000022070BD022684F82160A063206806688D
:1007000026F0010606602046FFF7A8FDE06A0028F3
:100710002068016802D041F00E0106E021F00401DA
:1007200001602068016841F00A01016020680168E9
:1007300041F001010160D9E72DE9F84FDFF8C891D8
:100740000024A9F1040B23460F2709F1040AABF199
:10075000040ED1E00125A54006EA0502AA4276D1A1
:10076000DFF8A8C14E68A6EB0C0866452BD00DDC5F
:10077000032E34D005DC36B3012E19D0022E2FD132
:100780001BE0112E16D0122E2AD119E0B8F5881FC1
:1007900019D006DCB8F5803F15D0B8F5801F1FD101
:1007A00011E0B8F5001F0ED0B8F5041F18D10AE00B
:1007B000CB6815E0CB681B1D12E0CB6808330FE057
:1007C000CB680C330CE08B682BB1012B4FF0080386
:1007D00003D0456104E0042302E0056100E000234A
:1007E000FF2A01D8064601E000F104064FEA84051D
:1007F00001D9A5F12005D6F8008007FA05FC28EA02
:100800000C0803FA05F548EA0508C6F800804D68AB
:10081000ED0070D53E4DAE6946F00106AE61AD69A2
:1008200024F0030605F0010500953A4D06EB050C92
:10083000DCF80850A607360F07FA06F825EA08057F
:10084000DFF8D480404503D14FF0000825E052E0A6
:10085000DFF8C880404502D14FF001081DE0DFF805
:10086000C080404502D14FF0020816E0DFF8B480A6
:10087000404502D14FF003080FE0DFF8AC8040455F
:1008800002D14FF0040808E0DFF8A080404502D113
:100890004FF0050801E04FF0060808FA06F848EAAC
:1008A0000508CCF808804D68D9F80060ED024D4687
:1008B00001D5164300E096432E604D68DAF80060DB
:1008C000AD02554601D5164300E096432E604D68B3
:1008D000DBF80060AD035D4601D5164300E09643AA
:1008E0002E604D68DEF80060ED03754601D51643B5
:1008F00000E096432E60641C0A681646E2407FF4CE
:1009000029AFBDE8F88F0000080401400000111075
:10091000001002400000014000080140000C0140AE
:10092000001001400014014000180140001C01406B
:100930000AB1016170470904FBE7000001488068C3
:1009400070470000000000200248816802781144CE
:100950008160704700000020074810B5016841F031
:1009600010010160032000F07BF80F2000F006F872
:1009700000F024F8002010BD0020024070B50D4D9D
:1009800004464FF47A712878B1FBF0F00A490968FF
:10099000B1FBF0F000F0E2FA48B9102C07D20022C7
:1009A0002146501E00F03CF800206C6070BD012014
:1009B00070BD0000000000200C0000200F4808B5AA
:1009C000816941F001018161816901F001010091BA
:1009D000C16941F08051C161C069002200F08050BE
:1009E00000900F21901E00F01BF80548416821F08F
:1009F000E06141F00071416008BD0000001002405C
:100A000000000140002809DB00F01F020121914095
:100A10004009800000F1E020C0F80011704700009C
:100A2000F0B40E4B1B680C46C3F30223C3F1070559
:100A3000042D00D90425191D072901D2002300E047
:100A4000DB1E012606FA05F1491E214099409E4011
:100A5000761E16403143F0BC01F00EBC0CED00E0F8
:100A6000064900F0070208684FF6FF03184040EA05
:100A70000220034A10430860704700000CED00E0BC
:100A80000000FA052DE9F0470F46050061D0434EFE
:100A9000306800F00700B84209D2306820F0070043
:100AA00038433060306800F00700B84251D1286800
:100AB0003B4C810712D5400703D5606840F4E060E5
:100AC00060602878000703D5606840F4605060607B
:100AD0006068A96820F0F000084360602878C007CB
:100AE00028D06868012810D02168022810D0890712
:100AF00000292EDA616821F0030101436160FFF7EC
:100B00001DFF804641F288390DE021688903EFE737
:100B10008901EDE7FFF712FFA0EB0801494502D973
:100B20000320BDE8F0876068696800F00C00B0EB56
:100B3000810FEFD1306800F00700B8420BD9306860
:100B400020F0070038433060306800F00700B842FA
:100B500001D00120E5E72878400705D56068E968FD
:100B600020F4E060084360602878000706D56068DC
:100B7000296920F4605040EAC100606000F038F854
:100B80006168084AC1F30311515CC8400649086016
:100B900006480068FFF7F2FE0020C2E7002002408E
:100BA00000100240D22500080C00002004000020A4
:100BB0000448054900684968044AC1F30221515CB0
:100BC000C84070470C00002000100240E2250008D9
:100BD0000448054900684968044AC1F3C221515CD0
:100BE000C84070470C00002000100240E2250008B9
:100BF0000E4A51680E4801F00C03042B11D0082B4B
:100C00000FD10C48C1F38343C903C05C0AD55168B6
:100C1000084AC1F34041921E515C054A5043B0FB63
:100C2000F1F070470449484370470000001002404B
:100C300000127A00C225000800093D002DE9F84F96
:100C4000040070D02078C04DC00749D06868C0F358
:100C50008100012807D06868C0F38100022809D10B
:100C60006868C00306D52868800339D56068002805
:100C7000E7D035E06068B0F5803F0BD010B1B0F53B
:100C8000A02F11D0286820F480302860286820F434
:100C9000802002E0286840F480302860606890B1CD
:100CA000FFF74CFE06460AE0286840F480202860E2
:100CB000F0E700BFFFF742FE801B642873D8286866
:100CC0008003F7D50CE0FFF739FE064605E000BFCC
:100CD000FFF734FE801B6428F0D828688003F7D41F
:100CE00020789A4E80074FF001094FF0000839D55F
:100CF000686810F00C0F07D06868C0F38100022804
:100D000009D16868C00306D42868800714D5206913
:100D1000012808D110E02069B0B1C6F80090FFF7B3
:100D20000DFE074605E00AE1FFF708FEC01B02289A
:100D3000C4D828688007F7D52868616920F0F800D2
:100D400040EAC10028600DE0C6F80080FFF7F6FD1C
:100D5000074604E0FFF7F2FDC01B022823D82868ED
:100D60008007F7D4207800072CD57948A169D9B13C
:100D7000C0F80090FFF7E2FD074604E0FFF7DEFD54
:100D8000C01B02280FD8686A8007F7D571484FF456
:100D9000FA510068B0FBF1F0009000BF0098411ECE
:100DA0000091FAD20EE080E0C0F80080FFF7C6FDA7
:100DB000074604E0FFF7C2FDC01B022875D8686A29
:100DC0008007F7D42078400760D5E8690027C00085
:100DD00008D4E86940F08050E861E869012700F034
:100DE000805000905C480168C90513D401688346AF
:100DF00041F480710160FFF7A1FD824606E000BF6B
:100E0000FFF79CFDA0EB0A0064284ED8DBF8000039
:100E1000C005F5D5E06801280AD008B1052813D02F
:100E2000286A20F001002862286A20F0040002E00D
:100E3000286A40F001002862E06841F2883B98B1DE
:100E4000FFF77CFD82460BE0286A40F00400286230
:100E5000EEE700BFFFF772FDA0EB0A0159455AD833
:100E6000286A8007F6D50CE0FFF768FD824605E0AA
:100E7000FFF764FDA0EB0A0159454CD8286A8007AA
:100E8000F6D41FB1E86920F08050E861E06988B3CA
:100E90006968C1F38101022944D00228C6F8608044
:100EA00004D0FFF74BFD044638E034E0FFF746FD81
:100EB000074604E0FFF742FDC01B02282BD8286834
:100EC0008001F7D4206AB0F5803F05D16868A16839
:100ED00020F4003008436860D4E9080108436968D9
:100EE00021F4741108436860C6F86090FFF726FD8E
:100EF000044606E025E000BFFFF720FD001B0228A6
:100F000009D828688001F7D51BE000BFFFF716FD60
:100F1000001B022802D90320BDE8F88F2868800151
:100F2000F4D40EE00128F7D06868226A00F480311A
:100F3000914204D1616A00F47010884201D001200E
:100F4000EAE70020E8E7000000100240000042420B
:100F5000800442420C0000200070004010B5401E8A
:100F6000B0F1807F01D3012010BD4FF0E02460611B
:100F70000F21601701F080F90020A0610720206197
:100F8000002010BD7047704770B590F83C20012AD2
:100F90002CD0012480F83C40022280F83D200368D8
:100FA0005A689D6822F070060A6832435A60104BF6
:100FB00002689A420ED00F4B9A420BD0B2F1804F8A
:100FC00008D00D4B9A4205D00C4B9A4202D00C4BE4
:100FD0009A4204D1496825F080031943916080F852
:100FE0003D40002180F83C10084670BD022070BDD5
:100FF000002C014000340140000400400008004083
:10100000000C004010B5040003D094F83D0010B16E
:1010100007E0012010BD002084F83C00204600F0CD
:101020001FF8022084F83D00211D206800F0B6FD65
:10103000012084F8460084F83E0084F83F0084F8DC
:10104000400084F8410084F8420084F8430084F8AA
:10105000440084F8450084F83D00002010BD0000E5
:1010600008B5114A01681148914211D1816941F4D2
:10107000006181618069002200F400600090052118
:101080001920FFF7CDFCBDE808401920FFF7BABCD6
:10109000074A914207D1C16941F00201C161C069AB
:1010A00000F00200009008BD002C0140001002403A
:1010B0000004004070B5044690F83C00002501286B
:1010C00017D0012684F83C60022084F83D00206897
:1010D000826822F0770222F47F42826008685028FA
:1010E00038D00DDC20284FD005DC90B3102811D16A
:1010F0004AE0022070BD302846D040280AD13BE0AB
:1011000060282FD070280DD0B0F5805F03D0B0F5E7
:10111000005F12D0012584F83D60002084F83C0077
:10112000284670BDCB68D1E90121206800F07CFD24
:101130002068816841F0770109E0CB68D1E901219D
:10114000206800F071FD2068816841F48041816071
:10115000E1E719E0CA684968206800F039FE5021CB
:10116000206806E0CA684968206800F042FE6021F5
:10117000206800F063FDCEE7CA684968206800F087
:1011800027FE40212068F4E7226801461046F0E778
:10119000704770B50446006801694FF00005C94307
:1011A000890715D4C168C943890711D4E91E0161B3
:1011B00001202077206880698007204602D0FFF751
:1011C000E7FF04E000F0CAF8204600F05CF925775C
:1011D00020680169C943490717D4C168C943490751
:1011E00013D46FF004010161022020772068806928
:1011F00010F4407F204602D0FFF7CAFF04E000F061
:10120000ADF8204600F03FF9257720680169C94311
:10121000090716D4C168C943090712D46FF0080141
:101220000161042020772068C0698007204602D031
:10123000FFF7AEFF04E000F091F8204600F023F93C
:10124000257720680169C943C90617D4C168C94315
:10125000C90613D46FF010010161082020772068BF
:10126000C06910F4407F204602D0FFF791FF04E0F0
:1012700000F074F8204600F006F92577206801692F
:10128000C943C90708D1C168C943C90704D1891E28
:101290000161204600F0F8F820680169C943090699
:1012A00009D4C168C943090605D46FF08001016102
:1012B0002046FFF767FE20680169C943490609D443
:1012C000C168C943490605D46FF040010161204659
:1012D00000F0DBF820680169C94389060BD4C168B6
:1012E000C943890607D46FF0200101612046BDE89B
:1012F0007040FFF748BE70BD00B585B00021009179
:101300000191029103910068104988421BD1104855
:10131000816941F0080181618069694600F0080037
:1013200004902020009002200190012003900948A1
:10133000FFF702FA0848416821F4406141F0E0619A
:1013400041F40061416005B000BD000000040040B0
:1013500000100240000C014000000140704770B5D1
:10136000044690F83C0000260D4601280FD00120CD
:1013700084F83C006AB1042A1DD0082A2FD00C2A18
:101380003FD00126002084F83C00304670BD02208A
:1013900070BD206800F05AFC2068816941F00801A6
:1013A00081612068816921F004018161206881697F
:1013B0002A69114311E0206800F078FC20688169F7
:1013C00041F4006181612068816921F4806181615B
:1013D000206881692A6941EA02218161D2E7206897
:1013E00000F09AFC2068C16941F00801C1612068E1
:1013F000C16921F00401C1612068C1692A691143F2
:1014000011E0206800F0BCFC2068C16941F4006173
:10141000C1612068C16921F48061C1612068C1692E
:101420002A6941EA0221C161ACE710B5040003D08A
:1014300094F83D0010B107E0012010BD002084F8B1
:101440003C00204600F01EF8022084F83D00211DDB
:10145000206800F0A3FB012084F8460084F83E00D9
:1014600084F83F0084F8400084F8410084F842008A
:1014700084F8430084F8440084F8450084F83D0073
:10148000002010BD70477047704770477047704725
:10149000F8B5016804460868CA684B6910F00F0F78
:1014A0004FF0000559D003F0010602F4907737435E
:1014B00065D0C10705D0D10503D5616C41F00101AC
:1014C0006164410705D5D90703D0616C41F0020181
:1014D0006164810705D5D90703D0616C41F004012F
:1014E0006164010707D502F02001314303D0616C2C
:1014F00041F008016164616C00293AD0800604D58E
:10150000900602D5204600F03AFD20684069616CE3
:10151000C0F38010090700D460B3204600F0FAFC45
:1015200020684069400621D52068143050E8001F2B
:1015300021F0400140E80012002AF5D1E06BA8B18B
:101540006D494163E06BFEF7C5FE002811D0E06BEA
:10155000416B01B0BDE8F040084783060FD5930604
:101560000DD52046BDE8F84000F009BD2046FFF744
:101570008EFFF8BD2046FFF78AFF6564F8BD266B35
:101580002023012E7CD1C6067AD5D60678D50868E8
:101590004868009048694FF00206400640D5E16B6C
:1015A000086840680004000CE8D0A28D8242E5D9AA
:1015B000E085886920282DD020680C3050E8001F75
:1015C00021F4807140E80012002AF5D1206814301F
:1015D00050E8001F21F0010140E80012002AF5D177
:1015E0002068143050E8001F21F0400140E800124C
:1015F000002AF5D184F84230256320680C3050E889
:10160000001F21F0100140E80012002AF5D1E06B24
:10161000FEF73CFE6663A08DE18D401A81B22AE0A0
:10162000A08DE18D401A81B2E08D0028A6D000295E
:10163000A4D022680C3252E8000F20F4907042E8E7
:101640000007002FF5D12068143050E8002F22F059
:10165000010240E80027002FF5D184F842302563CD
:1016600020680C3050E8002F22F0100240E80023E0
:10167000002BF5D166632046FFF708FFF8BDFFE7B2
:1016800005062BD5150629D594F841002128F5D15A
:10169000A068B0F5805F01D12069B0B1206A411C1B
:1016A0002162216800784860E08C401E0004000C34
:1016B000E084E3D12068C16821F08001C160206826
:1016C000C16841F04001C160D8E7206A0088C0F3DA
:1016D00008004860206A801C2062E5E74006CDD5FE
:1016E0005006CBD5CA68204622F04002CA6084F872
:1016F000413000F0EAF8C1E7171E000870B5040099
:1017000004D094F84100002510B106E0012070BD1E
:1017100084F84050204600F023F8242084F841004B
:101720002068C16821F40051C160204600F088FCA7
:101730002068016921F4904101612068416921F02C
:101740002A0141612068C16841F40051C1606564AB
:10175000202084F8410084F842006563002070BDB9
:1017600070B586B000250646009501950295039553
:101770000068224988423ED12149886940F480406E
:101780008861886900F480400490886940F0040012
:10179000886188691B4C00F0040004904815009093
:1017A000022001900320039069462046FEF7C4FF03
:1017B0002015CDE90005694620460295FEF7BCFFDD
:1017C000124C1148C4E900058020C4E9025025618B
:1017D0006561A5612046E561FEF738FF08B1FEF7B7
:1017E00053FDF4630022052125206662FFF718F9F6
:1017F0002520FFF707F906B070BD00000038014052
:101800000010024000080140580002403001002052
:1018100090F84230202B01D00220704721B11AB13C
:101820000023036300F068BC0120704770477047D5
:101830002DE9F843044690F841001F4616460D4630
:10184000202802D00220BDE8F8837DB176B10020C7
:101850006064212084F84100FFF770F8A684804678
:10186000E684A068B0F5805F02D003E00120EAE7DB
:10187000206910B12E4600250EE000260CE08021E4
:10188000204600F081FCA0B9AEB116F8010B21682A
:101890004860E08C401EE084E08C43464FF000023C
:1018A00000970028EBD14FF04001204600F06CFC7F
:1018B00030B10320C7E735F8020BC0F30800E6E7B4
:1018C000202084F841000020BDE77047FEE70000BB
:1018D000094808B5416941F00101416140690022B0
:1018E00000F00100009005210F20FFF799F8BDE8F6
:1018F00008400F20FFF786B8001002402DE9F041A4
:1019000086B00024244800940194029403948169D1
:1019100041F010018161816901F010010491816938
:1019200041F004018161816901F004010491816940
:1019300041F0080181618069184F00F00800012220
:10194000049011463846FEF7F3FFDFF85480012279
:1019500003214046FEF7ECFF012601AA11200325D2
:10196000009682E8310069463846FEF7E5FEE02041
:101970000227CDE90007694603950A48FEF7DCFE19
:1019800003970095CDE9016469464046FEF7D4FE11
:1019900006B0BDE8F08100000010024000100140D8
:1019A000000C01400008014010B586B00024174823
:1019B00000940194029403940494134905940160E3
:1019C0004721C0E901146421C0E903144461846122
:1019D000FFF718FB08B1FEF757FC4FF4805000905A
:1019E00069460A48FFF766FB08B1FEF74DFC049410
:1019F00004A906480594FFF7C7FA002801D0FEF7AE
:101A000043FC06B010BD0000002C0140580000202F
:101A100010B58EB000240794089409940A940B948E
:101A20001C2168460C94FEF7F4FB1E481C4901601B
:101A30004721C0E901140A21C0E903148461FFF7BA
:101A4000E1FA08B1FEF720FC4FF48050079007A997
:101A50001448FFF72FFB08B1FEF716FC1148FFF7FB
:101A6000E4FC08B1FEF710FC0B940BA90D480C9494
:101A7000FFF78AFA08B1FEF707FC60200090082003
:101A8000CDE901040422694606480494FFF767FC87
:101A900008B1FEF7F9FB0348FFF72EFC0EB010BDAE
:101AA00000040040A000002010B5134C11480C2188
:101AB00020604FF4165060600020A060E060C4E930
:101AC0000401A061E0612046FFF718FE08B1FEF7AF
:101AD000DBFB2068C16841F01001C160C8220749E2
:101AE0000548FFF795FE2068C16841F40051C160C8
:101AF00010BD000000380140E80000207401002003
:101B0000FEE7FEE710B5FEF71FFF00F0E3FC01283B
:101B100003D0BDE8104000F0C7BC10BD30B58FB099
:101B200028216846FEF775FB14210AA8FEF771FB11
:101B300001210804CDE9001000240294022504913B
:101B4000CDE907504FF4E01009906846FFF776F8AA
:101B500008B172B6FEE70F20CDE90A054FF48060A8
:101B6000CDE90C4002210AA80E94FEF78BFF002855
:101B700001D072B6FEE70FB030BD704710B5054812
:101B8000FFF707FB0122BDE8104011460248FEF7AF
:101B9000CFBE000058000020000C0140F0B50268E4
:101BA0001C4B1D4D1D4E1E4F1E4C4FF0804C98423D
:101BB00009D0A04207D0604505D0A84203D0B0426A
:101BC00001D0B84204D122F0700E4A6842EA0E02F7
:101BD000984209D0A04207D0604505D0A84203D062
:101BE000B04201D0B84203D122F44075CA682A43FA
:101BF0004D6922F080022A4302608A68C2620A6844
:101C00008262984201D0A04201D109690163012199
:101C10004161F0BD002C014000040040000800407C
:101C2000000C00400034014010B5846842EA0322F1
:101C300024F47F440A432243826010BD826822F06C
:101C400070020A4342F0070181607047F0B5036AF1
:101C5000026A22F00102026242688469124E24F094
:101C600073050C682C4323F002058B682B430D4D44
:101C7000A84201D0B04205D123F00807CB683B430E
:101C800023F00403A84201D0B04205D14D6922F4EB
:101C9000407215438A692A434260846149684163FE
:101CA0000362F0BD002C014000340140F0B5026A2F
:101CB000036A23F010030362436884690D6824F407
:101CC000E64444EA05248D6822F0200242EA051227
:101CD0000F4D104EA84201D0B04206D1CF6822F07D
:101CE000800242EA071222F04002A84201D0B0422C
:101CF00007D14D6923F4406343EA85038D6943EAC4
:101D0000850343608461496881630262F0BD00001D
:101D1000002C014000340140F0B5026A036A23F44C
:101D2000807303624368C46922F4007224F073056F
:101D30000C68124E2C438D6842EA05220E4DA842D3
:101D400001D0B04206D1CF6822F4006242EA0722F5
:101D500022F48062A84201D0B04207D14D6923F439
:101D6000405343EA05138D6943EA05134360C46198
:101D70004968C1630262F0BD002C0140003401409B
:101D800030B5046A026A22F4805202624268C36972
:101D90000D6823F4E64343EA05238D6824F40054D8
:101DA00044EA0534084DA84202D0084DA84204D1A7
:101DB0004D6922F4804242EA85124260C36149685B
:101DC0000164046230BD0000002C01400034014079
:101DD00010B5036A046A24F001040462846924F0E3
:101DE000F00444EA021423F00A020A438461026206
:101DF00010BD10B5036A046A24F0100404628469FB
:101E000023F0A00324F4704444EA023243EA0111AF
:101E10008261016210BD10B5406A0021C185C18494
:101E2000FFF735FB10BD70B5446A2068406994F82F
:101E30004110C0F3C0100025212904D118B1E58458
:101E4000204600F08EF82068406994F84210C0F3F4
:101E50008010222904D118B1E585204600F05AF8F7
:101E6000606C40F0100060642046FFF710FB70BD0E
:101E700010B50146406A096809684FF000028906FA
:101E80002ED4C28501680C3151E8003F23F48073E1
:101E900041E80034002CF5D10168143151E8003FCD
:101EA00023F0010341E80034002CF5D1016814311E
:101EB00051E8003F23F0400341E80034002CF5D105
:101EC000202180F84210016B012909D101680C31F1
:101ED00051E8003F23F0100341E80034002CF5D115
:101EE0004263016B012902D0FFF7A0FC10BD818D78
:101EF000FFF7CCFA10BD10B5406A01214163016BB8
:101F0000012902D0FFF793FC10BD818D4908FFF72E
:101F1000BDFA10BD01680C3151E8002F22F4907217
:101F200041E80023002BF5D10168143151E8002F5E
:101F300022F0010241E80023002BF5D1016B0129B9
:101F400009D101680C3151E8002F22F0100241E85C
:101F50000023002BF5D1202180F8421000210163DD
:101F6000704701680C3151E8002F22F0C00241E8AF
:101F70000023002BF5D1202180F84110704708B5CF
:101F800090F84210222901D0022008BD82684FF447
:101F900080539A4201D1016921B1816A9A421BD0D2
:101FA0004AB10AE00268816A5268C2F308020A80F4
:101FB000816A891C08E0026972B10268526802F005
:101FC0007F020A70816A491C8162C18D491E090421
:101FD000090CC18503D01BE002685268F1E7016873
:101FE000CA6822F02002CA600168CA6822F48072BE
:101FF000CA6001684A6922F001024A61202180F822
:10200000421000214163026B012A03D0FFF70EFC4E
:10201000002008BD016301680C3151E8002F22F057
:10202000100241E80023002BF5D101680A68D206AE
:1020300002D50A6849680091818DFFF727FAE7E722
:1020400070B5044600680169E26821F4405111430B
:1020500001612169A0680843616908432168CA6871
:1020600041F20C639A430243CA6020684169A26945
:1020700021F44071114341611E492068884202D118
:10208000FEF7A6FD01E0FEF793FD00EBC00101EBBA
:102090000012606864218000B2FBF0F3B3FBF1F33F
:1020A0006FF018067343B2FBF0F5B2FBF0F605EBE8
:1020B0008305322303EB0515B5FBF1F5B6FBF1F60D
:1020C00005F0F00505EB0615B2FBF0F6B2FBF0F0FB
:1020D000B0FBF1F06FF01802504306EB800003EB09
:1020E0000010B0FBF1F0216800F00F002844886078
:1020F00070BD00000038014038B581620446828519
:10210000002013466064222284F84220E56B1B4ABB
:10211000AA62E56B1A4AEA62E56B1A4A2A63E26B25
:1021200050630A462168E06B091DFEF7CDFA20686E
:10213000016840680090206948B120680C3050E880
:10214000001F41F4807140E80012002AF5D1206898
:10215000143050E8001F41F0010140E80012002A4D
:10216000F5D12068143050E8001F41F0400140E8EC
:102170000012002AF5D1002038BD0000711E0008B1
:10218000F71E0008271E00082DE9F0419846174663
:102190000E460446069D27E0681C25D02DB1FEF7AB
:1021A000CDFBA0EB0800A8421ED920680C3050E8F7
:1021B000001F21F4D07140E80012002AF5D12068F8
:1021C000143050E8001F21F0010140E80012002AFD
:1021D000F5D1202084F8410084F84200002084F8E2
:1021E00040000320BDE8F0812068006836EA000066
:1021F00004D00020B842CFD00020F3E70120F9E757
:1022000038B50F48FFF744F90D4800680168C90662
:1022100014D5016840680B4C0090206840680A495A
:10222000C0F1C8000860C82208490548FFF7F0FA65
:102230002168C820486006490120087038BD0000A8
:10224000E800002030010020100000207401002070
:1022500014000020FEE700000FB4054B10B503A9E1
:10226000044A029800F027F810BC5DF814FB000047
:102270008D230008540000200907090E002804DB04
:1022800000F1E02080F80014704700F00F0000F12A
:10229000E02080F8141D704702E008C8121F08C132
:1022A000002AFAD170477047002001E001C1121FD7
:1022B000002AFBD170472DE9F84F9946924688468F
:1022C0000546002706E025280AD051464A46904791
:1022D0006D1C7F1C28780028F5D13846BDE8F88FA2
:1022E000002315F8011F18462E2915D115F8011FD6
:1022F00004232A290DD06FF02F022978A1F1300490
:10230000092C09D800EB800002EB400008446D1C4A
:10231000F3E758F8040B6D1C2A78002ADDD0632AF5
:1023200007D0732A0FD0104651464A4690477F1C6B
:102330002AE018F8042B8DF8002000218DF80110F8
:102340006E46012103E058F8046B4FF0FF315A0745
:102350004FF0000401D409E0641C84420BDA8C4283
:10236000FADB325D002AF7D105E0641C8C42FCDB0D
:10237000305D0028F9D1274404E016F8010B5146DE
:102380004A469047641EF8D26D1CA3E713B54FF080
:10239000FF33012269460248FFF74AFA00981CBD44
:1023A000E8000020FEF7D8FAFFF7B8FBFFF7A6FA1F
:1023B000FFF78EFAFFF7F8FAFFF72AFBFFF774FB37
:1023C000044C002520780128FCD1257002A0FFF7DD
:1023D00043FFF7E71400002072785F6275663A25C4
:1023E000730D0A00074948680068002805D048684E
:1023F000C068C0684068086370474FF0FF300863EA
:1024000070470000180000200169436882689A60E4
:10241000836842685A604A68824201D182684A6091
:10242000002202610868401E086008687047426820
:102430004A6093688B609368596091600861016895
:10244000491C016070470000154A906B002802D0BB
:10245000012050627047002050629069B0FA80F00D
:10246000C0F11F000F4900EB800051F8203073B11C
:1024700001EB800041684968416000F1080399421E
:1024800001D1496841604068C068106070475020C1
:1024900080F31188BFF34F8FBFF36F8FFEE700000B
:1024A000180000203C02002010B5502080F3118855
:1024B000BFF34F8FBFF36F8F00F01AF818B10449C4
:1024C0004FF080500860002080F3118810BD00009C
:1024D00004ED00E00548C169002903D0806B18B104
:1024E000002070470120704702207047180000202C
:1024F0002DE9F0470026304FB86B002808D0386A25
:10250000401C3862786A00B101263046BDE8F08789
:102510007869451C7D619DB97868006838B15020A4
:1025200080F31188BFF34F8FBFF36F8FFEE778689A
:10253000B9687960B860B86A401CB862FFF752FFAA
:10254000386BDFF8788085420FD34FF00109786847
:10255000006838B17868C068C468606885420ED287
:10256000386302E04FF0FF3038633868C06A00EB30
:10257000800058F820000128C4D90126C2E7201D98
:10258000FFF742FFA06A18B104F11800FFF73CFF03
:10259000E16ABA6909FA01F01043B86101EB810000
:1025A00008EB8000211DFFF742FFE06A3968C96A25
:1025B0008842CCD30126CAE7180000203C02002044
:1025C000010202030405060708090A0B0C0D0E0F91
:1025D00010100000000000000000010203040607C4
:1025E0000809000000000102030400000C26000896
:1025F000000000205800000098220008642600080F
:1026000058000020D8060000A822000801000000A1
:10261000100000000000000000127A00000000001E
:1026200000000000000000000000000000000000AA
:10263000000000000000000000000000000000009A
:10264000000000000000000000000000000000008A
:10265000000000000000000000000000000000007A
:042660000000000076
:0400000508000131BD
:00000001FF
